{
  "contractName": "Provenance",
  "abi": [
    {
      "inputs": [],
      "stateMutability": "nonpayable",
      "type": "constructor"
    },
    {
      "anonymous": false,
      "inputs": [
        {
          "indexed": false,
          "internalType": "string",
          "name": "serialNo",
          "type": "string"
        },
        {
          "indexed": false,
          "internalType": "string",
          "name": "message",
          "type": "string"
        }
      ],
      "name": "Alert",
      "type": "event"
    },
    {
      "anonymous": false,
      "inputs": [
        {
          "indexed": true,
          "internalType": "address",
          "name": "entityAddress",
          "type": "address"
        },
        {
          "indexed": false,
          "internalType": "bool",
          "name": "certified",
          "type": "bool"
        }
      ],
      "name": "EntityCertified",
      "type": "event"
    },
    {
      "anonymous": false,
      "inputs": [
        {
          "indexed": true,
          "internalType": "address",
          "name": "entityAddress",
          "type": "address"
        },
        {
          "indexed": false,
          "internalType": "enum Provenance.Role",
          "name": "role",
          "type": "uint8"
        },
        {
          "indexed": false,
          "internalType": "string",
          "name": "name",
          "type": "string"
        },
        {
          "indexed": false,
          "internalType": "bool",
          "name": "certified",
          "type": "bool"
        },
        {
          "indexed": false,
          "internalType": "string",
          "name": "link",
          "type": "string"
        }
      ],
      "name": "EntityRegistered",
      "type": "event"
    },
    {
      "anonymous": false,
      "inputs": [
        {
          "indexed": false,
          "internalType": "string",
          "name": "serialNo",
          "type": "string"
        },
        {
          "indexed": false,
          "internalType": "string",
          "name": "ipfsCid",
          "type": "string"
        },
        {
          "indexed": false,
          "internalType": "uint256",
          "name": "timeStamp",
          "type": "uint256"
        },
        {
          "indexed": true,
          "internalType": "address",
          "name": "producer",
          "type": "address"
        }
      ],
      "name": "ProductAdded",
      "type": "event"
    },
    {
      "anonymous": false,
      "inputs": [
        {
          "indexed": false,
          "internalType": "string",
          "name": "newSerialNo",
          "type": "string"
        },
        {
          "indexed": false,
          "internalType": "string[]",
          "name": "parentSerialNos",
          "type": "string[]"
        },
        {
          "indexed": false,
          "internalType": "string",
          "name": "ipfsCid",
          "type": "string"
        },
        {
          "indexed": false,
          "internalType": "uint256",
          "name": "timeStamp",
          "type": "uint256"
        },
        {
          "indexed": true,
          "internalType": "address",
          "name": "producer",
          "type": "address"
        }
      ],
      "name": "ProductCreatedFromExisting",
      "type": "event"
    },
    {
      "anonymous": false,
      "inputs": [
        {
          "indexed": false,
          "internalType": "string",
          "name": "shipmentSerialNo",
          "type": "string"
        },
        {
          "indexed": false,
          "internalType": "string[]",
          "name": "productSerialNos",
          "type": "string[]"
        },
        {
          "indexed": false,
          "internalType": "string",
          "name": "newIpfsCid",
          "type": "string"
        },
        {
          "indexed": false,
          "internalType": "uint256",
          "name": "timestamp",
          "type": "uint256"
        }
      ],
      "name": "ProductsAssociatedToShipment",
      "type": "event"
    },
    {
      "anonymous": false,
      "inputs": [
        {
          "indexed": false,
          "internalType": "string",
          "name": "serialNo",
          "type": "string"
        },
        {
          "indexed": false,
          "internalType": "string",
          "name": "ipfsCid",
          "type": "string"
        },
        {
          "indexed": false,
          "internalType": "uint256",
          "name": "timeStamp",
          "type": "uint256"
        },
        {
          "indexed": true,
          "internalType": "address",
          "name": "sender",
          "type": "address"
        }
      ],
      "name": "ShipmentAdded",
      "type": "event"
    },
    {
      "anonymous": false,
      "inputs": [
        {
          "indexed": false,
          "internalType": "string",
          "name": "serialNo",
          "type": "string"
        },
        {
          "indexed": false,
          "internalType": "address",
          "name": "from",
          "type": "address"
        },
        {
          "indexed": false,
          "internalType": "address",
          "name": "to",
          "type": "address"
        }
      ],
      "name": "ShipmentOwnershipTransferred",
      "type": "event"
    },
    {
      "anonymous": false,
      "inputs": [
        {
          "indexed": false,
          "internalType": "string",
          "name": "serialNo",
          "type": "string"
        },
        {
          "indexed": false,
          "internalType": "address",
          "name": "from",
          "type": "address"
        },
        {
          "indexed": false,
          "internalType": "address",
          "name": "to",
          "type": "address"
        },
        {
          "indexed": false,
          "internalType": "uint256",
          "name": "timestamp",
          "type": "uint256"
        }
      ],
      "name": "ShipmentOwnershipTransferred",
      "type": "event"
    },
    {
      "anonymous": false,
      "inputs": [
        {
          "indexed": false,
          "internalType": "string",
          "name": "serialNo",
          "type": "string"
        },
        {
          "indexed": false,
          "internalType": "address",
          "name": "newOwner",
          "type": "address"
        },
        {
          "indexed": false,
          "internalType": "uint256",
          "name": "timestamp",
          "type": "uint256"
        }
      ],
      "name": "ShipmentTransferAccepted",
      "type": "event"
    },
    {
      "anonymous": false,
      "inputs": [
        {
          "indexed": false,
          "internalType": "string",
          "name": "serialNo",
          "type": "string"
        },
        {
          "indexed": false,
          "internalType": "address",
          "name": "from",
          "type": "address"
        },
        {
          "indexed": false,
          "internalType": "address",
          "name": "to",
          "type": "address"
        },
        {
          "indexed": false,
          "internalType": "uint256",
          "name": "timestamp",
          "type": "uint256"
        }
      ],
      "name": "ShipmentTransferInitiated",
      "type": "event"
    },
    {
      "anonymous": false,
      "inputs": [
        {
          "indexed": false,
          "internalType": "string",
          "name": "serialNo",
          "type": "string"
        },
        {
          "indexed": false,
          "internalType": "address",
          "name": "rejector",
          "type": "address"
        },
        {
          "indexed": false,
          "internalType": "uint256",
          "name": "timestamp",
          "type": "uint256"
        }
      ],
      "name": "ShipmentTransferRejected",
      "type": "event"
    },
    {
      "anonymous": false,
      "inputs": [
        {
          "indexed": false,
          "internalType": "string",
          "name": "serialNo",
          "type": "string"
        },
        {
          "indexed": false,
          "internalType": "string",
          "name": "newIpfsCid",
          "type": "string"
        },
        {
          "indexed": false,
          "internalType": "int256",
          "name": "temperature",
          "type": "int256"
        },
        {
          "indexed": false,
          "internalType": "string",
          "name": "location",
          "type": "string"
        },
        {
          "indexed": false,
          "internalType": "address",
          "name": "updatedBy",
          "type": "address"
        },
        {
          "indexed": false,
          "internalType": "uint256",
          "name": "timestamp",
          "type": "uint256"
        }
      ],
      "name": "ShipmentUpdated",
      "type": "event"
    },
    {
      "anonymous": false,
      "inputs": [
        {
          "indexed": false,
          "internalType": "string",
          "name": "serialNo",
          "type": "string"
        },
        {
          "indexed": false,
          "internalType": "int256",
          "name": "temperature",
          "type": "int256"
        },
        {
          "indexed": false,
          "internalType": "uint256",
          "name": "timeStamp",
          "type": "uint256"
        }
      ],
      "name": "TemperatureLogged",
      "type": "event"
    },
    {
      "inputs": [],
      "name": "admin",
      "outputs": [
        {
          "internalType": "address",
          "name": "",
          "type": "address"
        }
      ],
      "stateMutability": "view",
      "type": "function"
    },
    {
      "inputs": [
        {
          "internalType": "string",
          "name": "",
          "type": "string"
        },
        {
          "internalType": "uint256",
          "name": "",
          "type": "uint256"
        }
      ],
      "name": "alerts",
      "outputs": [
        {
          "internalType": "uint256",
          "name": "timestamp",
          "type": "uint256"
        },
        {
          "internalType": "uint256",
          "name": "code",
          "type": "uint256"
        }
      ],
      "stateMutability": "view",
      "type": "function"
    },
    {
      "inputs": [
        {
          "internalType": "address",
          "name": "",
          "type": "address"
        }
      ],
      "name": "entities",
      "outputs": [
        {
          "internalType": "address",
          "name": "entityAddress",
          "type": "address"
        },
        {
          "internalType": "enum Provenance.Role",
          "name": "role",
          "type": "uint8"
        },
        {
          "internalType": "string",
          "name": "name",
          "type": "string"
        },
        {
          "internalType": "string",
          "name": "location",
          "type": "string"
        },
        {
          "internalType": "bool",
          "name": "isRegistered",
          "type": "bool"
        },
        {
          "internalType": "bool",
          "name": "isCertified",
          "type": "bool"
        },
        {
          "internalType": "string",
          "name": "link",
          "type": "string"
        }
      ],
      "stateMutability": "view",
      "type": "function"
    },
    {
      "inputs": [
        {
          "internalType": "address",
          "name": "",
          "type": "address"
        },
        {
          "internalType": "uint256",
          "name": "",
          "type": "uint256"
        }
      ],
      "name": "ownedShipments",
      "outputs": [
        {
          "internalType": "string",
          "name": "",
          "type": "string"
        }
      ],
      "stateMutability": "view",
      "type": "function"
    },
    {
      "inputs": [
        {
          "internalType": "string",
          "name": "",
          "type": "string"
        }
      ],
      "name": "productCIDs",
      "outputs": [
        {
          "internalType": "string",
          "name": "",
          "type": "string"
        }
      ],
      "stateMutability": "view",
      "type": "function"
    },
    {
      "inputs": [
        {
          "internalType": "uint256",
          "name": "",
          "type": "uint256"
        }
      ],
      "name": "productSerialNumbers",
      "outputs": [
        {
          "internalType": "string",
          "name": "",
          "type": "string"
        }
      ],
      "stateMutability": "view",
      "type": "function"
    },
    {
      "inputs": [
        {
          "internalType": "uint256",
          "name": "",
          "type": "uint256"
        }
      ],
      "name": "registeredEntityAddresses",
      "outputs": [
        {
          "internalType": "address",
          "name": "",
          "type": "address"
        }
      ],
      "stateMutability": "view",
      "type": "function"
    },
    {
      "inputs": [
        {
          "internalType": "string",
          "name": "",
          "type": "string"
        }
      ],
      "name": "shipmentCIDs",
      "outputs": [
        {
          "internalType": "string",
          "name": "",
          "type": "string"
        }
      ],
      "stateMutability": "view",
      "type": "function"
    },
    {
      "inputs": [
        {
          "internalType": "string",
          "name": "",
          "type": "string"
        }
      ],
      "name": "shipmentOwners",
      "outputs": [
        {
          "internalType": "address",
          "name": "",
          "type": "address"
        }
      ],
      "stateMutability": "view",
      "type": "function"
    },
    {
      "inputs": [
        {
          "internalType": "uint256",
          "name": "",
          "type": "uint256"
        }
      ],
      "name": "shipmentSerialNumbers",
      "outputs": [
        {
          "internalType": "string",
          "name": "",
          "type": "string"
        }
      ],
      "stateMutability": "view",
      "type": "function"
    },
    {
      "inputs": [
        {
          "internalType": "string",
          "name": "",
          "type": "string"
        },
        {
          "internalType": "uint256",
          "name": "",
          "type": "uint256"
        }
      ],
      "name": "shipmentToProducts",
      "outputs": [
        {
          "internalType": "string",
          "name": "",
          "type": "string"
        }
      ],
      "stateMutability": "view",
      "type": "function"
    },
    {
      "inputs": [
        {
          "internalType": "string",
          "name": "",
          "type": "string"
        },
        {
          "internalType": "uint256",
          "name": "",
          "type": "uint256"
        }
      ],
      "name": "temperatureLogs",
      "outputs": [
        {
          "internalType": "uint256",
          "name": "timestamp",
          "type": "uint256"
        },
        {
          "internalType": "int256",
          "name": "temperature",
          "type": "int256"
        }
      ],
      "stateMutability": "view",
      "type": "function"
    },
    {
      "inputs": [
        {
          "internalType": "address",
          "name": "entity",
          "type": "address"
        },
        {
          "internalType": "enum Provenance.Role",
          "name": "role",
          "type": "uint8"
        },
        {
          "internalType": "string",
          "name": "name",
          "type": "string"
        },
        {
          "internalType": "string",
          "name": "location",
          "type": "string"
        },
        {
          "internalType": "bool",
          "name": "certified",
          "type": "bool"
        },
        {
          "internalType": "string",
          "name": "link",
          "type": "string"
        }
      ],
      "name": "registerEntity",
      "outputs": [],
      "stateMutability": "nonpayable",
      "type": "function"
    },
    {
      "inputs": [
        {
          "internalType": "address",
          "name": "entity",
          "type": "address"
        }
      ],
      "name": "getEntityDetails",
      "outputs": [
        {
          "components": [
            {
              "internalType": "address",
              "name": "entityAddress",
              "type": "address"
            },
            {
              "internalType": "enum Provenance.Role",
              "name": "role",
              "type": "uint8"
            },
            {
              "internalType": "string",
              "name": "name",
              "type": "string"
            },
            {
              "internalType": "string",
              "name": "location",
              "type": "string"
            },
            {
              "internalType": "bool",
              "name": "isRegistered",
              "type": "bool"
            },
            {
              "internalType": "bool",
              "name": "isCertified",
              "type": "bool"
            },
            {
              "internalType": "string",
              "name": "link",
              "type": "string"
            }
          ],
          "internalType": "struct Provenance.Entity",
          "name": "",
          "type": "tuple"
        }
      ],
      "stateMutability": "view",
      "type": "function"
    },
    {
      "inputs": [],
      "name": "getAllRegisteredEntities",
      "outputs": [
        {
          "internalType": "address[]",
          "name": "",
          "type": "address[]"
        }
      ],
      "stateMutability": "view",
      "type": "function"
    },
    {
      "inputs": [
        {
          "internalType": "string",
          "name": "serialNo",
          "type": "string"
        },
        {
          "internalType": "string",
          "name": "message",
          "type": "string"
        }
      ],
      "name": "createAlert",
      "outputs": [],
      "stateMutability": "nonpayable",
      "type": "function"
    },
    {
      "inputs": [
        {
          "internalType": "address",
          "name": "entity",
          "type": "address"
        },
        {
          "internalType": "bool",
          "name": "certified",
          "type": "bool"
        }
      ],
      "name": "certifyEntity",
      "outputs": [],
      "stateMutability": "nonpayable",
      "type": "function"
    },
    {
      "inputs": [],
      "name": "getAllProductSerialNumbers",
      "outputs": [
        {
          "internalType": "string[]",
          "name": "",
          "type": "string[]"
        }
      ],
      "stateMutability": "view",
      "type": "function"
    },
    {
      "inputs": [
        {
          "internalType": "string",
          "name": "serialNo",
          "type": "string"
        }
      ],
      "name": "getProductCID",
      "outputs": [
        {
          "internalType": "string",
          "name": "",
          "type": "string"
        }
      ],
      "stateMutability": "view",
      "type": "function"
    },
    {
      "inputs": [
        {
          "internalType": "string",
          "name": "serialNo",
          "type": "string"
        }
      ],
      "name": "getShipmentCID",
      "outputs": [
        {
          "internalType": "string",
          "name": "",
          "type": "string"
        }
      ],
      "stateMutability": "view",
      "type": "function"
    },
    {
      "inputs": [
        {
          "internalType": "string",
          "name": "serialNo",
          "type": "string"
        },
        {
          "internalType": "string",
          "name": "ipfsCid",
          "type": "string"
        }
      ],
      "name": "addProduct",
      "outputs": [],
      "stateMutability": "nonpayable",
      "type": "function"
    },
    {
      "inputs": [
        {
          "internalType": "string",
          "name": "newSerialNo",
          "type": "string"
        },
        {
          "internalType": "string[]",
          "name": "parentSerialNos",
          "type": "string[]"
        },
        {
          "internalType": "string",
          "name": "ipfsCid",
          "type": "string"
        }
      ],
      "name": "createProductFromExisting",
      "outputs": [],
      "stateMutability": "nonpayable",
      "type": "function"
    },
    {
      "inputs": [
        {
          "internalType": "string",
          "name": "serialNo",
          "type": "string"
        },
        {
          "internalType": "string",
          "name": "ipfsCid",
          "type": "string"
        },
        {
          "internalType": "address",
          "name": "owner",
          "type": "address"
        }
      ],
      "name": "addShipment",
      "outputs": [],
      "stateMutability": "nonpayable",
      "type": "function"
    },
    {
      "inputs": [],
      "name": "getSender",
      "outputs": [
        {
          "internalType": "address",
          "name": "",
          "type": "address"
        }
      ],
      "stateMutability": "view",
      "type": "function"
    },
    {
      "inputs": [
        {
          "internalType": "string",
          "name": "shipmentSerialNo",
          "type": "string"
        },
        {
          "internalType": "string[]",
          "name": "productSerialNos",
          "type": "string[]"
        },
        {
          "internalType": "string",
          "name": "newIpfsCid",
          "type": "string"
        }
      ],
      "name": "associateProductsToShipment",
      "outputs": [],
      "stateMutability": "nonpayable",
      "type": "function"
    },
    {
      "inputs": [
        {
          "internalType": "string",
          "name": "serialNo",
          "type": "string"
        },
        {
          "internalType": "string",
          "name": "newIpfsCid",
          "type": "string"
        }
      ],
      "name": "updateShipmentCID",
      "outputs": [],
      "stateMutability": "nonpayable",
      "type": "function"
    },
    {
      "inputs": [
        {
          "internalType": "string",
          "name": "serialNo",
          "type": "string"
        },
        {
          "internalType": "string",
          "name": "newIpfsCid",
          "type": "string"
        },
        {
          "internalType": "int256",
          "name": "temperature",
          "type": "int256"
        },
        {
          "internalType": "string",
          "name": "location",
          "type": "string"
        }
      ],
      "name": "syncShipmentCID",
      "outputs": [],
      "stateMutability": "nonpayable",
      "type": "function"
    },
    {
      "inputs": [
        {
          "internalType": "string",
          "name": "serialNo",
          "type": "string"
        }
      ],
      "name": "getTemperatureLogs",
      "outputs": [
        {
          "components": [
            {
              "internalType": "uint256",
              "name": "timestamp",
              "type": "uint256"
            },
            {
              "internalType": "int256",
              "name": "temperature",
              "type": "int256"
            }
          ],
          "internalType": "struct Provenance.TemperatureLog[]",
          "name": "",
          "type": "tuple[]"
        }
      ],
      "stateMutability": "view",
      "type": "function"
    },
    {
      "inputs": [
        {
          "internalType": "string",
          "name": "serialNo",
          "type": "string"
        },
        {
          "internalType": "address",
          "name": "newOwner",
          "type": "address"
        }
      ],
      "name": "initiateShipmentTransfer",
      "outputs": [],
      "stateMutability": "nonpayable",
      "type": "function"
    },
    {
      "inputs": [
        {
          "internalType": "string",
          "name": "serialNo",
          "type": "string"
        },
        {
          "internalType": "string",
          "name": "newIpfsCid",
          "type": "string"
        }
      ],
      "name": "acceptShipmentTransfer",
      "outputs": [],
      "stateMutability": "nonpayable",
      "type": "function"
    },
    {
      "inputs": [
        {
          "internalType": "string",
          "name": "serialNo",
          "type": "string"
        },
        {
          "internalType": "string",
          "name": "newIpfsCid",
          "type": "string"
        }
      ],
      "name": "rejectShipmentTransfer",
      "outputs": [],
      "stateMutability": "nonpayable",
      "type": "function"
    },
    {
      "inputs": [
        {
          "internalType": "address",
          "name": "owner",
          "type": "address"
        }
      ],
      "name": "getOwnedShipments",
      "outputs": [
        {
          "internalType": "string[]",
          "name": "",
          "type": "string[]"
        }
      ],
      "stateMutability": "view",
      "type": "function"
    },
    {
      "inputs": [],
      "name": "getAllShipmentSerialNumbers",
      "outputs": [
        {
          "internalType": "string[]",
          "name": "",
          "type": "string[]"
        }
      ],
      "stateMutability": "view",
      "type": "function"
    },
    {
      "inputs": [
        {
          "internalType": "address",
          "name": "user",
          "type": "address"
        }
      ],
      "name": "getPendingTransfers",
      "outputs": [
        {
          "internalType": "string[]",
          "name": "",
          "type": "string[]"
        }
      ],
      "stateMutability": "view",
      "type": "function"
    },
    {
      "inputs": [
        {
          "internalType": "string",
          "name": "serialNo",
          "type": "string"
        },
        {
          "internalType": "int256",
          "name": "temperature",
          "type": "int256"
        }
      ],
      "name": "logTemperature",
      "outputs": [],
      "stateMutability": "nonpayable",
      "type": "function"
    },
    {
      "inputs": [
        {
          "internalType": "string",
          "name": "serialNo",
          "type": "string"
        },
        {
          "internalType": "uint256",
          "name": "code",
          "type": "uint256"
        }
      ],
      "name": "setAlert",
      "outputs": [],
      "stateMutability": "nonpayable",
      "type": "function"
    },
    {
      "inputs": [
        {
          "internalType": "string",
          "name": "serialNo",
          "type": "string"
        }
      ],
      "name": "getAlerts",
      "outputs": [
        {
          "components": [
            {
              "internalType": "uint256",
              "name": "timestamp",
              "type": "uint256"
            },
            {
              "internalType": "uint256",
              "name": "code",
              "type": "uint256"
            }
          ],
          "internalType": "struct Provenance.AlertLog[]",
          "name": "",
          "type": "tuple[]"
        }
      ],
      "stateMutability": "view",
      "type": "function"
    },
    {
      "inputs": [
        {
          "internalType": "string",
          "name": "serialNo",
          "type": "string"
        }
      ],
      "name": "getShipmentOwner",
      "outputs": [
        {
          "internalType": "address",
          "name": "",
          "type": "address"
        }
      ],
      "stateMutability": "view",
      "type": "function"
    },
    {
      "inputs": [
        {
          "internalType": "address",
          "name": "user",
          "type": "address"
        }
      ],
      "name": "isAdmin",
      "outputs": [
        {
          "internalType": "bool",
          "name": "",
          "type": "bool"
        }
      ],
      "stateMutability": "view",
      "type": "function"
    }
  ],
  "bytecode": "0x608060405234801561001057600080fd5b50600080546001600160a01b03191633179055613bb3806100326000396000f3fe608060405234801561001057600080fd5b506004361061023d5760003560e01c806389e4f5121161013b578063b54a6066116100b8578063d4a6e8691161007c578063d4a6e86914610571578063d7fc6e5e14610579578063eb86f8dd1461058c578063f49d91041461059f578063f851a440146105b257600080fd5b8063b54a606614610512578063b97d944714610525578063c21dcb0a14610538578063c51d74511461054b578063ca2efb551461055e57600080fd5b806394fc9cae116100ff57806394fc9cae146104b357806395774a1f146104c6578063a55466d9146104d9578063ad72d488146104ec578063b4434bdf146104ff57600080fd5b806389e4f512146104335780638a43d89b146104465780638f28232c146104595780638ffb406c1461046c578063935cd33f146104a057600080fd5b8063395e48a1116101c95780635e01eb5a1161018d5780635e01eb5a146103d457806366505738146103da57806379299647146103ed5780637df3d4e4146104005780637ea36fde1461042057600080fd5b8063395e48a11461033b57806346deffe41461034e57806349ff37b9146103795780634a91065e1461038c5780634ddd3f1e146103ac57600080fd5b806324d7806c1161021057806324d7806c146102ae57806329e93963146102e05780632be837ec146102f35780632cad6e5414610313578063376f383d1461032857600080fd5b806307ee6a0d1461024257806316897f1e146102605780631d0af4ba146102755780631d8ee48a14610288575b600080fd5b61024a6105c5565b6040516102579190612e80565b60405180910390f35b61027361026e366004612f51565b61069e565b005b61027361028336600461305a565b610951565b61029b6102963660046130da565b610a0a565b604051610257979695949392919061312d565b6102d06102bc3660046130da565b6000546001600160a01b0391821691161490565b6040519015158152602001610257565b6102736102ee3660046131b0565b610bf7565b6103066103013660046130da565b610cfa565b60405161025791906131e3565b61031b610f6e565b604051610257919061328b565b61024a6103363660046130da565b610fd0565b61024a6103493660046130da565b6110bf565b61036161035c3660046132d8565b6111a3565b6040516001600160a01b039091168152602001610257565b610273610387366004613315565b61121e565b61039f61039a3660046132d8565b6114e3565b6040516102579190613389565b6103bf6103ba3660046133d8565b611569565b60408051928352602083019190915201610257565b33610361565b6103bf6103e83660046133d8565b6115b4565b6102736103fb36600461341d565b6115df565b61041361040e3660046133d8565b61182d565b60405161025791906134dc565b61027361042e3660046133d8565b6118f5565b6104136104413660046134ef565b6119e6565b6102736104543660046133d8565b611a02565b61027361046736600461305a565b611aba565b61036161047a3660046132d8565b80516020818301810180516004825292820191909301209152546001600160a01b031681565b6102736104ae366004613519565b611b44565b6104136104c13660046132d8565b611ce3565b6104136104d43660046132d8565b611e06565b6104136104e73660046132d8565b611e2a565b6103616104fa3660046135ab565b611eb6565b61041361050d3660046132d8565b611ee0565b61027361052036600461305a565b611f04565b6102736105333660046135c4565b612012565b6104136105463660046135ab565b61229e565b6104136105593660046135ab565b6122c9565b61027361056c36600461305a565b6122d9565b61024a6124b1565b61039f6105873660046132d8565b612581565b61027361059a36600461305a565b612593565b6102736105ad366004612f51565b612930565b600054610361906001600160a01b031681565b6060600e805480602002602001604051908101604052809291908181526020016000905b8282101561069557838290600052602060002001805461060890613609565b80601f016020809104026020016040519081016040528092919081815260200182805461063490613609565b80156106815780601f1061065657610100808354040283529160200191610681565b820191906000526020600020905b81548152906001019060200180831161066457829003601f168201915b5050505050815260200190600101906105e9565b50505050905090565b3360009081526001602052604090206003015460ff166106d95760405162461bcd60e51b81526004016106d090613643565b60405180910390fd5b600083511161072a5760405162461bcd60e51b815260206004820152601e60248201527f53657269616c206e756d6265722063616e6e6f7420626520656d70747921000060448201526064016106d0565b60028360405161073a919061367a565b9081526020016040518091039020805461075390613609565b1590506107b35760405162461bcd60e51b815260206004820152602860248201527f4e65772070726f647563742073657269616c206e756d62657220616c72656164604482015267792065786973747360c01b60648201526084016106d0565b33600090815260016020526040902060030154610100900460ff166107ea5760405162461bcd60e51b81526004016106d090613696565b60005b825181101561089b576000600284838151811061080c5761080c6136cd565b6020026020010151604051610821919061367a565b9081526020016040518091039020805461083a90613609565b9050116108895760405162461bcd60e51b815260206004820152601d60248201527f506172656e742070726f6475637420646f6573206e6f7420657869737400000060448201526064016106d0565b80610893816136f9565b9150506107ed565b50806002846040516108ad919061367a565b908152602001604051809103902090816108c79190613761565b50600d80546001810182556000919091527fd7b6990105719101dabeb77144f2a3385c8033acd3af97e9423a695e81ad1eb5016109048482613761565b50336001600160a01b03167fec6e7b8a21c30eb6bd6f15f553e472591e2dbae57a4ea7ff9fe0a3de671ed23b848484426040516109449493929190613821565b60405180910390a2505050565b3360009081526001602052604090206003015460ff166109835760405162461bcd60e51b81526004016106d090613643565b600382604051610993919061367a565b908152602001604051809103902080546109ac90613609565b90506000036109cd5760405162461bcd60e51b81526004016106d09061386c565b7f27a52feb2288b309e390dd9a2ea57df4a2e8b76dc24311a5f4453ddd889e028a82826040516109fe9291906138a3565b60405180910390a15050565b6001602081905260009182526040909120805491810180546001600160a01b03841693600160a01b900460ff16929190610a4390613609565b80601f0160208091040260200160405190810160405280929190818152602001828054610a6f90613609565b8015610abc5780601f10610a9157610100808354040283529160200191610abc565b820191906000526020600020905b815481529060010190602001808311610a9f57829003601f168201915b505050505090806002018054610ad190613609565b80601f0160208091040260200160405190810160405280929190818152602001828054610afd90613609565b8015610b4a5780601f10610b1f57610100808354040283529160200191610b4a565b820191906000526020600020905b815481529060010190602001808311610b2d57829003601f168201915b505050506003830154600484018054939460ff8084169561010090940416935091610b7490613609565b80601f0160208091040260200160405190810160405280929190818152602001828054610ba090613609565b8015610bed5780601f10610bc257610100808354040283529160200191610bed565b820191906000526020600020905b815481529060010190602001808311610bd057829003601f168201915b5050505050905087565b6000546001600160a01b03163314610c215760405162461bcd60e51b81526004016106d0906138c8565b6001600160a01b03821660009081526001602052604090206003015460ff16610c8c5760405162461bcd60e51b815260206004820152601f60248201527f456e74697479206d75737420626520726567697374657265642066697273740060448201526064016106d0565b6001600160a01b0382166000818152600160205260409081902060030180548415156101000261ff0019909116179055517fe6c9869672a3e6071219345ffe0bb6e08df4993746ba7fee5a15d92d6578167190610cee90841515815260200190565b60405180910390a25050565b6040805160e080820183526000808352602080840182905260608486018190528085018190526080850183905260a0850183905260c08501526001600160a01b038681168352600182529185902085519384019095528454918216835292939192830190600160a01b900460ff166004811115610d7957610d796130f5565b6004811115610d8a57610d8a6130f5565b8152602001600182018054610d9e90613609565b80601f0160208091040260200160405190810160405280929190818152602001828054610dca90613609565b8015610e175780601f10610dec57610100808354040283529160200191610e17565b820191906000526020600020905b815481529060010190602001808311610dfa57829003601f168201915b50505050508152602001600282018054610e3090613609565b80601f0160208091040260200160405190810160405280929190818152602001828054610e5c90613609565b8015610ea95780601f10610e7e57610100808354040283529160200191610ea9565b820191906000526020600020905b815481529060010190602001808311610e8c57829003601f168201915b5050509183525050600382015460ff808216151560208401526101009091041615156040820152600482018054606090920191610ee590613609565b80601f0160208091040260200160405190810160405280929190818152602001828054610f1190613609565b8015610f5e5780601f10610f3357610100808354040283529160200191610f5e565b820191906000526020600020905b815481529060010190602001808311610f4157829003601f168201915b5050505050815250509050919050565b6060600f805480602002602001604051908101604052809291908181526020018280548015610fc657602002820191906000526020600020905b81546001600160a01b03168152600190910190602001808311610fa8575b5050505050905090565b6001600160a01b0381166000908152600760209081526040808320805482518185028101850190935280835260609492939192909184015b828210156110b457838290600052602060002001805461102790613609565b80601f016020809104026020016040519081016040528092919081815260200182805461105390613609565b80156110a05780601f10611075576101008083540402835291602001916110a0565b820191906000526020600020905b81548152906001019060200180831161108357829003601f168201915b505050505081526020019060010190611008565b505050509050919050565b6001600160a01b0381166000908152600560209081526040808320805482518185028101850190935280835260609492939192909184015b828210156110b457838290600052602060002001805461111690613609565b80601f016020809104026020016040519081016040528092919081815260200182805461114290613609565b801561118f5780601f106111645761010080835404028352916020019161118f565b820191906000526020600020905b81548152906001019060200180831161117257829003601f168201915b5050505050815260200190600101906110f7565b60006003826040516111b5919061367a565b908152602001604051809103902080546111ce90613609565b90506000036111ef5760405162461bcd60e51b81526004016106d09061386c565b6004826040516111ff919061367a565b908152604051908190036020019020546001600160a01b031692915050565b3360009081526001602052604090206003015460ff166112505760405162461bcd60e51b81526004016106d090613643565b60008351116112a15760405162461bcd60e51b815260206004820152601d60248201527f53657269616c206e756d6265722063616e6e6f7420626520656d70747900000060448201526064016106d0565b6003836040516112b1919061367a565b908152602001604051809103902080546112ca90613609565b1590506113195760405162461bcd60e51b815260206004820152601760248201527f536869706d656e7420616c72656164792065786973747300000000000000000060448201526064016106d0565b33600090815260016020526040902060030154610100900460ff166113505760405162461bcd60e51b81526004016106d090613696565b60008251116113955760405162461bcd60e51b8152602060048201526011602482015270496e76616c69642049504653204349442160781b60448201526064016106d0565b816003846040516113a6919061367a565b908152602001604051809103902090816113c09190613761565b50806004846040516113d2919061367a565b90815260405190819003602001902080546001600160a01b03929092166001600160a01b0319909216919091179055600e80546001810182556000919091527fbb7b4a454dc3493923482f07822329ed19e8244eff582cc204f8554c3620c3fd0161143d8482613761565b506001600160a01b0381166000908152600560209081526040822080546001810182559083529120016114708482613761565b503360009081526005602052604090205461148d9060019061390a565b60068460405161149d919061367a565b9081526040519081900360200181209190915533907f763f4f2a25812de70bef403754c9498ea79b9679497787c10917bf859e5e332a9061094490869086904290613923565b6060600c826040516114f5919061367a565b9081526020016040518091039020805480602002602001604051908101604052809291908181526020016000905b828210156110b457838290600052602060002090600202016040518060400160405290816000820154815260200160018201548152505081526020019060010190611523565b8151602081840181018051600c82529282019185019190912091905280548290811061159457600080fd5b600091825260209091206002909102018054600190910154909250905082565b8151602081840181018051600982529282019185019190912091905280548290811061159457600080fd5b6000546001600160a01b031633146116095760405162461bcd60e51b81526004016106d0906138c8565b6001600160a01b03861660009081526001602052604090206003015460ff16156116755760405162461bcd60e51b815260206004820152601960248201527f456e7469747920616c726561647920726567697374657265640000000000000060448201526064016106d0565b6040518060e00160405280876001600160a01b031681526020018660048111156116a1576116a16130f5565b815260208082018790526040808301879052600160608401819052861515608085015260a09093018590526001600160a01b03808b16600090815293835292208351815493166001600160a01b0319841681178255918401519092909183916001600160a81b03191617600160a01b836004811115611722576117226130f5565b02179055506040820151600182019061173b9082613761565b50606082015160028201906117509082613761565b50608082015160038201805460a085015115156101000261ff00199315159390931661ffff199091161791909117905560c082015160048201906117949082613761565b5050600f80546001810182556000919091527f8d1108e10bcb7c27dddfc02ed9d693a074039d026cf4ea4240b40f7d581ac8020180546001600160a01b0319166001600160a01b0389169081179091556040519091507f64859646932835e8c38b6598fe83fb09d8b667514c7f79fa998aa0f5758859cb9061181d908890889087908790613959565b60405180910390a2505050505050565b8151602081840181018051600a82529282019185019190912091905280548290811061185857600080fd5b9060005260206000200160009150915050805461187490613609565b80601f01602080910402602001604051908101604052809291908181526020018280546118a090613609565b80156118ed5780601f106118c2576101008083540402835291602001916118ed565b820191906000526020600020905b8154815290600101906020018083116118d057829003601f168201915b505050505081565b81600481604051611906919061367a565b90815260405190819003602001902054336001600160a01b03909116148061193857506000546001600160a01b031633145b6119545760405162461bcd60e51b81526004016106d09061399e565b600983604051611964919061367a565b908152604080519182900360209081018320838301835242808552848301878152825460018181018555600094855294909320955160029093029095019182559351910155517f3bc1d4a1cb3590899de3475e3047b4f2625dd053c26a83a7aa88b0e5a55af819916119d991869186916139fb565b60405180910390a1505050565b6005602052816000526040600020818154811061185857600080fd5b81600481604051611a13919061367a565b90815260405190819003602001902054336001600160a01b039091161480611a4557506000546001600160a01b031633145b611a615760405162461bcd60e51b81526004016106d09061399e565b600c83604051611a71919061367a565b9081526040805160209281900383018120818301909252428152828101948552815460018082018455600093845293909220905160029092020190815592519201919091555050565b6000815111611adb5760405162461bcd60e51b81526004016106d090613a20565b80600383604051611aec919061367a565b90815260200160405180910390209081611b069190613761565b50611b113383612b8a565b7ff2961851b9d7d8e08d190f3453f0d2708c37e2d468cee0b0893221c0191870268233426040516109fe93929190613a4a565b600484604051611b54919061367a565b90815260405190819003602001902054336001600160a01b0390911614611bd25760405162461bcd60e51b815260206004820152602c60248201527f4f6e6c792074686520736869706d656e742773206f776e65722063616e20757060448201526b19185d19481d1a194810d25160a21b60648201526084016106d0565b6000835111611bf35760405162461bcd60e51b81526004016106d090613a20565b600384604051611c03919061367a565b90815260200160405180910390206000611c1d9190612d82565b82600385604051611c2e919061367a565b90815260200160405180910390209081611c489190613761565b50600984604051611c59919061367a565b908152604080519182900360209081018320838301835242808552848301878152825460018181018555600094855294909320955160029093029095019182559351910155517fefb9740c508579aa63922e303e94a2ad3b3f93ce392a95678afa5b114264701491611cd5918791879187918791339190613a78565b60405180910390a150505050565b6060600282604051611cf5919061367a565b90815260200160405180910390208054611d0e90613609565b9050600003611d585760405162461bcd60e51b8152602060048201526016602482015275141c9bd91d58dd08191bd95cc81b9bdd08195e1a5cdd60521b60448201526064016106d0565b600282604051611d68919061367a565b90815260200160405180910390208054611d8190613609565b80601f0160208091040260200160405190810160405280929190818152602001828054611dad90613609565b8015611dfa5780601f10611dcf57610100808354040283529160200191611dfa565b820191906000526020600020905b815481529060010190602001808311611ddd57829003601f168201915b50505050509050919050565b80516020818301810180516003825292820191909301209152805461187490613609565b6060600382604051611e3c919061367a565b90815260200160405180910390208054611e5590613609565b9050600003611ea65760405162461bcd60e51b815260206004820152601860248201527f536869706d656e7420646f6573206e6f7420657869737421000000000000000060448201526064016106d0565b600382604051611d68919061367a565b600f8181548110611ec657600080fd5b6000918252602090912001546001600160a01b0316905081565b80516020818301810180516002825292820191909301209152805461187490613609565b81600481604051611f15919061367a565b90815260405190819003602001902054336001600160a01b039091161480611f4757506000546001600160a01b031633145b611f635760405162461bcd60e51b81526004016106d09061399e565b6000825111611f845760405162461bcd60e51b81526004016106d090613a20565b600383604051611f94919061367a565b90815260200160405180910390206000611fae9190612d82565b81600384604051611fbf919061367a565b90815260200160405180910390209081611fd99190613761565b507fefb9740c508579aa63922e303e94a2ad3b3f93ce392a95678afa5b11426470148383600033426040516119d9959493929190613ad6565b6001600160a01b03811660009081526001602052604090206003015460ff1661208b5760405162461bcd60e51b815260206004820152602560248201527f4e6577206f776e6572206d7573742062652061207265676973746572656420656044820152646e7469747960d81b60648201526084016106d0565b336001600160a01b03166004836040516120a5919061367a565b908152604051908190036020019020546001600160a01b0316146121275760405162461bcd60e51b815260206004820152603360248201527f4f6e6c792074686520736869706d656e742773206f776e65722063616e20696e60448201527234ba34b0ba32903a3432903a3930b739b332b960691b60648201526084016106d0565b600b82604051612137919061367a565b9081526040519081900360200190205460ff16156121a95760405162461bcd60e51b815260206004820152602960248201527f5468697320736869706d656e74207472616e7366657220697320616c72656164604482015268792070656e64696e6760b81b60648201526084016106d0565b6001600160a01b0381166000908152600760209081526040822080546001810182559083529120016121db8382613761565b506001600160a01b0381166000908152600760205260409020546122019060019061390a565b600883604051612211919061367a565b9081526040805191829003602090810183206001600160a01b038616600090815291522091909155600190600b9061224a90859061367a565b908152604051908190036020018120805492151560ff19909316929092179091557f406e9f3ff1b0aaf2b84331a0c7965bb820e554aefc2641b24724654799b29b60906109fe908490339085904290613b31565b600e81815481106122ae57600080fd5b90600052602060002001600091509050805461187490613609565b600d81815481106122ae57600080fd5b3360009081526001602052604090206003015460ff1661230b5760405162461bcd60e51b81526004016106d090613643565b600082511161235c5760405162461bcd60e51b815260206004820152601e60248201527f53657269616c206e756d6265722063616e6e6f7420626520656d70747921000060448201526064016106d0565b60028260405161236c919061367a565b9081526020016040518091039020805461238590613609565b1590506123d45760405162461bcd60e51b815260206004820152601760248201527f50726f6475637420616c7265616479206578697374732100000000000000000060448201526064016106d0565b33600090815260016020526040902060030154610100900460ff1661240b5760405162461bcd60e51b81526004016106d090613696565b8060028360405161241c919061367a565b908152602001604051809103902090816124369190613761565b50600d80546001810182556000919091527fd7b6990105719101dabeb77144f2a3385c8033acd3af97e9423a695e81ad1eb5016124738382613761565b50336001600160a01b03167f93cf4d4d474d7e8209cea310632fd0e254a7ef6bbf5bae88662b05358892083a838342604051610cee93929190613923565b6060600d805480602002602001604051908101604052809291908181526020016000905b828210156106955783829060005260206000200180546124f490613609565b80601f016020809104026020016040519081016040528092919081815260200182805461252090613609565b801561256d5780601f106125425761010080835404028352916020019161256d565b820191906000526020600020905b81548152906001019060200180831161255057829003601f168201915b5050505050815260200190600101906124d5565b60606009826040516114f5919061367a565b60008151116125b45760405162461bcd60e51b81526004016106d090613a20565b60006004836040516125c6919061367a565b908152604051908190036020018120546001600160a01b031691506003906125ef90859061367a565b908152602001604051809103902060006126099190612d82565b8160038460405161261a919061367a565b908152602001604051809103902090816126349190613761565b50600483604051612645919061367a565b90815260405190819003602001812080546001600160a01b0319169055339060049061267290869061367a565b908152602001604051809103902060006101000a8154816001600160a01b0302191690836001600160a01b0316021790555060006006846040516126b6919061367a565b9081526040805160209281900383019020546001600160a01b03851660009081526005909352908220805491935091906126f29060019061390a565b90508083146127f157600082828154811061270f5761270f6136cd565b90600052602060002001805461272490613609565b80601f016020809104026020016040519081016040528092919081815260200182805461275090613609565b801561279d5780601f106127725761010080835404028352916020019161279d565b820191906000526020600020905b81548152906001019060200180831161278057829003601f168201915b50505050509050808385815481106127b7576127b76136cd565b9060005260206000200190816127cd9190613761565b50836006826040516127df919061367a565b90815260405190819003602001902055505b8180548061280157612801613b67565b60019003818190600052602060002001600061281d9190612d82565b905560068660405161282f919061367a565b9081526040805160209281900383019020600090819055338152600583529081208054600181018255908252919020016128698782613761565b50336000908152600560205260409020546128869060019061390a565b600687604051612896919061367a565b908152604051908190036020019020556128b03387612b8a565b7fda7f13a2a059b882860eb9179b0e07abbb2c1e7e00a0fba337c1fc9652b064a08633426040516128e393929190613a4a565b60405180910390a17ff35a780b75f9d6d535dc5fde99d92865d08677d8dd7392539e4ed70360fcb013868533426040516129209493929190613b31565b60405180910390a1505050505050565b82600481604051612941919061367a565b90815260405190819003602001902054336001600160a01b03909116148061297357506000546001600160a01b031633145b61298f5760405162461bcd60e51b81526004016106d09061399e565b60038460405161299f919061367a565b908152602001604051809103902080546129b890613609565b90506000036129d95760405162461bcd60e51b81526004016106d09061386c565b60008251116129fa5760405162461bcd60e51b81526004016106d090613a20565b600384604051612a0a919061367a565b90815260200160405180910390206000612a249190612d82565b81600385604051612a35919061367a565b90815260200160405180910390209081612a4f9190613761565b5060005b8351811015612b54576002848281518110612a7057612a706136cd565b6020026020010151604051612a85919061367a565b90815260200160405180910390208054612a9e90613609565b9050600003612ae85760405162461bcd60e51b8152602060048201526016602482015275141c9bd91d58dd08191bd95cc81b9bdd08195e1a5cdd60521b60448201526064016106d0565b600a85604051612af8919061367a565b9081526020016040518091039020848281518110612b1857612b186136cd565b60209081029190910181015182546001810184556000938452919092200190612b419082613761565b5080612b4c816136f9565b915050612a53565b507f43f96ec5e7b4c9d8270a1a06be28fe6780ab6dcccf1daf1624affcaadff28fee84848442604051611cd59493929190613821565b6000600882604051612b9c919061367a565b90815260408051602092819003830190206001600160a01b0386166000908152908352818120546007909352908120805492935091612bdd9060019061390a565b9050808314612cf1576000828281548110612bfa57612bfa6136cd565b906000526020600020018054612c0f90613609565b80601f0160208091040260200160405190810160405280929190818152602001828054612c3b90613609565b8015612c885780601f10612c5d57610100808354040283529160200191612c88565b820191906000526020600020905b815481529060010190602001808311612c6b57829003601f168201915b5050505050905080838581548110612ca257612ca26136cd565b906000526020600020019081612cb89190613761565b5083600882604051612cca919061367a565b90815260408051602092819003830190206001600160a01b038a1660009081529252902055505b81805480612d0157612d01613b67565b600190038181906000526020600020016000612d1d9190612d82565b9055600884604051612d2f919061367a565b9081526040805191829003602090810183206001600160a01b0389166000908152915290812055600b90612d6490869061367a565b908152604051908190036020019020805460ff191690555050505050565b508054612d8e90613609565b6000825580601f10612d9e575050565b601f016020900490600052602060002090810190612dbc9190612dbf565b50565b5b80821115612dd45760008155600101612dc0565b5090565b60005b83811015612df3578181015183820152602001612ddb565b50506000910152565b60008151808452612e14816020860160208601612dd8565b601f01601f19169290920160200192915050565b600082825180855260208086019550808260051b84010181860160005b84811015612e7357601f19868403018952612e61838351612dfc565b98840198925090830190600101612e45565b5090979650505050505050565b602081526000612e936020830184612e28565b9392505050565b634e487b7160e01b600052604160045260246000fd5b604051601f8201601f1916810167ffffffffffffffff81118282101715612ed957612ed9612e9a565b604052919050565b600082601f830112612ef257600080fd5b813567ffffffffffffffff811115612f0c57612f0c612e9a565b612f1f601f8201601f1916602001612eb0565b818152846020838601011115612f3457600080fd5b816020850160208301376000918101602001919091529392505050565b600080600060608486031215612f6657600080fd5b833567ffffffffffffffff80821115612f7e57600080fd5b612f8a87838801612ee1565b9450602091508186013581811115612fa157600080fd5b8601601f81018813612fb257600080fd5b803582811115612fc457612fc4612e9a565b8060051b612fd3858201612eb0565b918252828101850191858101908b841115612fed57600080fd5b86850192505b838310156130295782358681111561300b5760008081fd5b6130198d8983890101612ee1565b8352509186019190860190612ff3565b975050505060408701359250508082111561304357600080fd5b5061305086828701612ee1565b9150509250925092565b6000806040838503121561306d57600080fd5b823567ffffffffffffffff8082111561308557600080fd5b61309186838701612ee1565b935060208501359150808211156130a757600080fd5b506130b485828601612ee1565b9150509250929050565b80356001600160a01b03811681146130d557600080fd5b919050565b6000602082840312156130ec57600080fd5b612e93826130be565b634e487b7160e01b600052602160045260246000fd5b6005811061312957634e487b7160e01b600052602160045260246000fd5b9052565b6001600160a01b0388168152613146602082018861310b565b60e06040820152600061315c60e0830188612dfc565b828103606084015261316e8188612dfc565b9050851515608084015284151560a084015282810360c08401526131928185612dfc565b9a9950505050505050505050565b803580151581146130d557600080fd5b600080604083850312156131c357600080fd5b6131cc836130be565b91506131da602084016131a0565b90509250929050565b602080825282516001600160a01b03168282015282015160009061320a604084018261310b565b50604083015160e06060840152613225610100840182612dfc565b90506060840151601f19808584030160808601526132438383612dfc565b92506080860151151560a086015260a0860151915061326660c086018315159052565b60c08601519150808584030160e0860152506132828282612dfc565b95945050505050565b6020808252825182820181905260009190848201906040850190845b818110156132cc5783516001600160a01b0316835292840192918401916001016132a7565b50909695505050505050565b6000602082840312156132ea57600080fd5b813567ffffffffffffffff81111561330157600080fd5b61330d84828501612ee1565b949350505050565b60008060006060848603121561332a57600080fd5b833567ffffffffffffffff8082111561334257600080fd5b61334e87838801612ee1565b9450602086013591508082111561336457600080fd5b5061337186828701612ee1565b925050613380604085016130be565b90509250925092565b602080825282518282018190526000919060409081850190868401855b828110156133cb578151805185528601518685015292840192908501906001016133a6565b5091979650505050505050565b600080604083850312156133eb57600080fd5b823567ffffffffffffffff81111561340257600080fd5b61340e85828601612ee1565b95602094909401359450505050565b60008060008060008060c0878903121561343657600080fd5b61343f876130be565b955060208701356005811061345357600080fd5b9450604087013567ffffffffffffffff8082111561347057600080fd5b61347c8a838b01612ee1565b9550606089013591508082111561349257600080fd5b61349e8a838b01612ee1565b94506134ac60808a016131a0565b935060a08901359150808211156134c257600080fd5b506134cf89828a01612ee1565b9150509295509295509295565b602081526000612e936020830184612dfc565b6000806040838503121561350257600080fd5b61350b836130be565b946020939093013593505050565b6000806000806080858703121561352f57600080fd5b843567ffffffffffffffff8082111561354757600080fd5b61355388838901612ee1565b9550602087013591508082111561356957600080fd5b61357588838901612ee1565b945060408701359350606087013591508082111561359257600080fd5b5061359f87828801612ee1565b91505092959194509250565b6000602082840312156135bd57600080fd5b5035919050565b600080604083850312156135d757600080fd5b823567ffffffffffffffff8111156135ee57600080fd5b6135fa85828601612ee1565b9250506131da602084016130be565b600181811c9082168061361d57607f821691505b60208210810361363d57634e487b7160e01b600052602260045260246000fd5b50919050565b60208082526018908201527f456e74697479206973206e6f7420726567697374657265640000000000000000604082015260600190565b6000825161368c818460208701612dd8565b9190910192915050565b60208082526019908201527f456e74697479206d757374206265206365727469666965642100000000000000604082015260600190565b634e487b7160e01b600052603260045260246000fd5b634e487b7160e01b600052601160045260246000fd5b60006001820161370b5761370b6136e3565b5060010190565b601f82111561375c57600081815260208120601f850160051c810160208610156137395750805b601f850160051c820191505b8181101561375857828155600101613745565b5050505b505050565b815167ffffffffffffffff81111561377b5761377b612e9a565b61378f816137898454613609565b84613712565b602080601f8311600181146137c457600084156137ac5750858301515b600019600386901b1c1916600185901b178555613758565b600085815260208120601f198616915b828110156137f3578886015182559484019460019091019084016137d4565b50858210156138115787850151600019600388901b60f8161c191681555b5050505050600190811b01905550565b6080815260006138346080830187612dfc565b82810360208401526138468187612e28565b9050828103604084015261385a8186612dfc565b91505082606083015295945050505050565b60208082526017908201527f536869706d656e7420646f6573206e6f74206578697374000000000000000000604082015260600190565b6040815260006138b66040830185612dfc565b82810360208401526132828185612dfc565b60208082526022908201527f4f6e6c792061646d696e2063616e20706572666f726d2074686973206163746960408201526137b760f11b606082015260800190565b8181038181111561391d5761391d6136e3565b92915050565b6060815260006139366060830186612dfc565b82810360208401526139488186612dfc565b915050826040830152949350505050565b613963818661310b565b6080602082015260006139796080830186612dfc565b841515604084015282810360608401526139938185612dfc565b979650505050505050565b6020808252603a908201527f4f6e6c792074686520736869706d656e742773206f776e6572206f722061646d60408201527f696e2063616e20706572666f726d207468697320616374696f6e000000000000606082015260800190565b606081526000613a0e6060830186612dfc565b60208301949094525060400152919050565b60208082526010908201526f125b9d985b1a590812541194c810d25160821b604082015260600190565b606081526000613a5d6060830186612dfc565b6001600160a01b039490941660208301525060400152919050565b60c081526000613a8b60c0830189612dfc565b8281036020840152613a9d8189612dfc565b90508660408401528281036060840152613ab78187612dfc565b6001600160a01b03959095166080840152505060a00152949350505050565b60c081526000613ae960c0830188612dfc565b8281036020840152613afb8188612dfc565b604084019690965250508084036060820152600084526001600160a01b0392909216608083015260a09091015260200192915050565b608081526000613b446080830187612dfc565b6001600160a01b0395861660208401529390941660408201526060015292915050565b634e487b7160e01b600052603160045260246000fdfea264697066735822122099d036900027bf0b03240c2bb3eeb751b4942502b23aa50af172893da4397a8364736f6c63430008130033",
  "immutableReferences": {},
  "source": "// SPDX-License-Identifier: MIT\r\npragma solidity ^0.8.0;\r\n\r\ncontract Provenance {\r\n    address public admin;\r\n    mapping(address => Entity) public entities;\r\n    mapping(string => string) public productCIDs; // Mapping to store product IPFS CIDs\r\n    mapping(string => string) public shipmentCIDs; // Mapping to store shipment IPFS CIDs\r\n    mapping(string => address) public shipmentOwners; // Mapping to keep track of current shipment owner\r\n\r\n    mapping(address => string[]) public ownedShipments; //mapping to keep track of all shipments owned by an address\r\n    // Mapping to keep track of each shipment's index in the ownedShipments array\r\n    mapping(string => uint) private shipmentIndexes;\r\n    // Mapping to track pending transfers for each address\r\n    mapping(address => string[]) private pendingTransfers;\r\n    // Mapping to track the index of each pending transfer in the pendingTransfers array\r\n    mapping(string => mapping(address => uint)) private pendingTransferIndexes;\r\n\r\n    mapping(string => TemperatureLog[]) public temperatureLogs; // Mapping from shipment serial numbers to temperature logs\r\n    mapping(string => string[]) public shipmentToProducts; // Mapping from shipment serial numbers to arrays of product serial numbers\r\n    // Mapping to track whether a serial number is pending for transfer\r\n    mapping(string => bool) private pendingSerialNumbers;\r\n    //mapping to store alert for a shipment\r\n    mapping(string => AlertLog[]) public alerts;\r\n\r\n    string[] public productSerialNumbers;\r\n    string[] public shipmentSerialNumbers;\r\n    address[] public registeredEntityAddresses;\r\n\r\n    enum Role {\r\n        Supplier,\r\n        Producer,\r\n        Transporter,\r\n        Warehouse,\r\n        Market\r\n    }\r\n\r\n    enum AlertCode {\r\n        TemperatureAlert,\r\n        LocationAlert,\r\n        ShockAlert,\r\n        HumidityAlert\r\n    }\r\n\r\n    struct Entity {\r\n        address entityAddress;\r\n        Role role;\r\n        string name;\r\n        string location;\r\n        bool isRegistered;\r\n        bool isCertified;\r\n        string link;\r\n    }\r\n\r\n    struct TemperatureLog {\r\n        uint256 timestamp;\r\n        int temperature;\r\n    }\r\n\r\n    struct AlertLog {\r\n        uint256 timestamp;\r\n        uint256 code;\r\n    }\r\n\r\n    event EntityRegistered(\r\n        address indexed entityAddress,\r\n        Role role,\r\n        string name,\r\n        bool certified,\r\n        string link\r\n    );\r\n    event EntityCertified(address indexed entityAddress, bool certified);\r\n\r\n    event Alert(string serialNo, string message);\r\n\r\n    event ProductAdded(\r\n        string serialNo,\r\n        string ipfsCid,\r\n        uint timeStamp,\r\n        address indexed producer\r\n    );\r\n    event ProductCreatedFromExisting(\r\n        string newSerialNo,\r\n        string[] parentSerialNos,\r\n        string ipfsCid,\r\n        uint timeStamp,\r\n        address indexed producer\r\n    );\r\n\r\n    event ShipmentAdded(\r\n        string serialNo,\r\n        string ipfsCid,\r\n        uint timeStamp,\r\n        address indexed sender\r\n    );\r\n    event ProductsAssociatedToShipment(\r\n        string shipmentSerialNo,\r\n        string[] productSerialNos,\r\n        string newIpfsCid,\r\n        uint timestamp\r\n    );\r\n    event ShipmentOwnershipTransferred(\r\n        string serialNo,\r\n        address from,\r\n        address to\r\n    );\r\n    event TemperatureLogged(string serialNo, int temperature, uint timeStamp);\r\n    event ShipmentTransferInitiated(\r\n        string serialNo,\r\n        address from,\r\n        address to,\r\n        uint256 timestamp\r\n    );\r\n\r\n    event ShipmentTransferAccepted(\r\n        string serialNo,\r\n        address newOwner,\r\n        uint256 timestamp\r\n    );\r\n\r\n    event ShipmentOwnershipTransferred(\r\n        string serialNo,\r\n        address from,\r\n        address to,\r\n        uint256 timestamp\r\n    );\r\n\r\n    event ShipmentTransferRejected(\r\n        string serialNo,\r\n        address rejector,\r\n        uint256 timestamp\r\n    );\r\n\r\n    event ShipmentUpdated(\r\n        string serialNo,\r\n        string newIpfsCid,\r\n        int temperature,\r\n        string location,\r\n        address updatedBy,\r\n        uint timestamp\r\n    );\r\n\r\n    constructor() {\r\n        admin = msg.sender;\r\n    }\r\n\r\n    modifier onlyAdmin() {\r\n        require(msg.sender == admin, \"Only admin can perform this action\");\r\n        _;\r\n    }\r\n\r\n    modifier onlyRegistered() {\r\n        require(entities[msg.sender].isRegistered, \"Entity is not registered\");\r\n        _;\r\n    }\r\n\r\n    modifier onlyOwnerOfShipment(string memory serialNo) {\r\n        require(\r\n            msg.sender == shipmentOwners[serialNo],\r\n            \"Only the shipment's owner can perform this action\"\r\n        );\r\n        _;\r\n    }\r\n\r\n    modifier onlyOwnerOrAdmin(string memory serialNo) {\r\n        require(\r\n            msg.sender == shipmentOwners[serialNo] || msg.sender == admin,\r\n            \"Only the shipment's owner or admin can perform this action\"\r\n        );\r\n        _;\r\n    }\r\n\r\n    modifier onlyCertified() {\r\n        require(entities[msg.sender].isCertified, \"Entity must be certified\");\r\n        _;\r\n    }\r\n\r\n    // Entity management functions\r\n    function registerEntity(\r\n        address entity,\r\n        Role role,\r\n        string memory name,\r\n        string memory location,\r\n        bool certified,\r\n        string memory link\r\n    ) public onlyAdmin {\r\n        require(!entities[entity].isRegistered, \"Entity already registered\");\r\n        entities[entity] = Entity(\r\n            entity,\r\n            role,\r\n            name,\r\n            location,\r\n            true,\r\n            certified,\r\n            link\r\n        );\r\n        registeredEntityAddresses.push(entity);\r\n        emit EntityRegistered(entity, role, name, certified, link);\r\n    }\r\n\r\n    function getEntityDetails(\r\n        address entity\r\n    ) public view returns (Entity memory) {\r\n        return entities[entity];\r\n    }\r\n\r\n    // Function to get all registered entities\r\n    function getAllRegisteredEntities() public view returns (address[] memory) {\r\n        return registeredEntityAddresses;\r\n    }\r\n\r\n    function createAlert(\r\n        string memory serialNo,\r\n        string memory message\r\n    ) public onlyRegistered {\r\n        require(\r\n            bytes(shipmentCIDs[serialNo]).length != 0,\r\n            \"Shipment does not exist\"\r\n        );\r\n        emit Alert(serialNo, message);\r\n    }\r\n\r\n    function certifyEntity(address entity, bool certified) public onlyAdmin {\r\n        require(\r\n            entities[entity].isRegistered,\r\n            \"Entity must be registered first\"\r\n        );\r\n        entities[entity].isCertified = certified;\r\n        emit EntityCertified(entity, certified);\r\n    }\r\n\r\n    // Product management functions\r\n\r\n    function getAllProductSerialNumbers()\r\n        public\r\n        view\r\n        returns (string[] memory)\r\n    {\r\n        return productSerialNumbers;\r\n    }\r\n\r\n    // Function to get a product's CID by its serial number\r\n    function getProductCID(\r\n        string memory serialNo\r\n    ) public view returns (string memory) {\r\n        require(\r\n            bytes(productCIDs[serialNo]).length != 0,\r\n            \"Product does not exist\"\r\n        );\r\n        return productCIDs[serialNo];\r\n    }\r\n\r\n    // Function to get a shipment's CID by its serial number\r\n    function getShipmentCID(\r\n        string memory serialNo\r\n    ) public view returns (string memory) {\r\n        require(\r\n            bytes(shipmentCIDs[serialNo]).length != 0,\r\n            \"Shipment does not exist!\"\r\n        );\r\n        return shipmentCIDs[serialNo];\r\n    }\r\n\r\n    function addProduct(\r\n        string memory serialNo,\r\n        string memory ipfsCid\r\n    ) public onlyRegistered {\r\n        require(bytes(serialNo).length > 0, \"Serial number cannot be empty!\");\r\n        require(\r\n            bytes(productCIDs[serialNo]).length == 0,\r\n            \"Product already exists!\"\r\n        );\r\n        require(entities[msg.sender].isCertified, \"Entity must be certified!\");\r\n\r\n        productCIDs[serialNo] = ipfsCid;\r\n        productSerialNumbers.push(serialNo);\r\n        emit ProductAdded(serialNo, ipfsCid, block.timestamp, msg.sender);\r\n    }\r\n\r\n    function createProductFromExisting(\r\n        string memory newSerialNo,\r\n        string[] memory parentSerialNos,\r\n        string memory ipfsCid\r\n    ) public onlyRegistered {\r\n        require(\r\n            bytes(newSerialNo).length > 0,\r\n            \"Serial number cannot be empty!\"\r\n        );\r\n        require(\r\n            bytes(productCIDs[newSerialNo]).length == 0,\r\n            \"New product serial number already exists\"\r\n        );\r\n        require(entities[msg.sender].isCertified, \"Entity must be certified!\");\r\n        // Ensure all parent serial numbers exist\r\n        for (uint i = 0; i < parentSerialNos.length; i++) {\r\n            require(\r\n                bytes(productCIDs[parentSerialNos[i]]).length > 0,\r\n                \"Parent product does not exist\"\r\n            );\r\n        }\r\n\r\n        productCIDs[newSerialNo] = ipfsCid;\r\n        productSerialNumbers.push(newSerialNo);\r\n        emit ProductCreatedFromExisting(\r\n            newSerialNo,\r\n            parentSerialNos,\r\n            ipfsCid,\r\n            block.timestamp,\r\n            msg.sender\r\n        );\r\n    }\r\n\r\n    // Shipment management functions\r\n    function addShipment(\r\n        string memory serialNo,\r\n        string memory ipfsCid,\r\n        address owner\r\n    ) public onlyRegistered {\r\n        require(bytes(serialNo).length > 0, \"Serial number cannot be empty\");\r\n        require(\r\n            bytes(shipmentCIDs[serialNo]).length == 0,\r\n            \"Shipment already exists\"\r\n        );\r\n        require(entities[msg.sender].isCertified, \"Entity must be certified!\");\r\n        //require for ipfs not to be empty\r\n        require(bytes(ipfsCid).length > 0, \"Invalid IPFS CID!\");\r\n\r\n        shipmentCIDs[serialNo] = ipfsCid;\r\n        shipmentOwners[serialNo] = owner;\r\n        shipmentSerialNumbers.push(serialNo);\r\n        ownedShipments[owner].push(serialNo);\r\n        shipmentIndexes[serialNo] = ownedShipments[msg.sender].length - 1;\r\n        emit ShipmentAdded(serialNo, ipfsCid, block.timestamp, msg.sender);\r\n    }\r\n\r\n    function getSender() public view returns (address) {\r\n        return msg.sender;\r\n    }\r\n    function associateProductsToShipment(\r\n        string memory shipmentSerialNo,\r\n        string[] memory productSerialNos,\r\n        string memory newIpfsCid\r\n    ) public onlyOwnerOrAdmin(shipmentSerialNo) {\r\n        require(\r\n            bytes(shipmentCIDs[shipmentSerialNo]).length != 0,\r\n            \"Shipment does not exist\"\r\n        );\r\n\r\n        require(bytes(newIpfsCid).length > 0, \"Invalid IPFS CID\");\r\n\r\n        // Update the shipment's CID to the new CID provided\r\n        delete shipmentCIDs[shipmentSerialNo];\r\n        shipmentCIDs[shipmentSerialNo] = newIpfsCid;\r\n\r\n        // Associating products to the shipment\r\n        for (uint i = 0; i < productSerialNos.length; i++) {\r\n            require(\r\n                bytes(productCIDs[productSerialNos[i]]).length != 0,\r\n                \"Product does not exist\"\r\n            );\r\n            shipmentToProducts[shipmentSerialNo].push(productSerialNos[i]);\r\n        }\r\n\r\n        // Emitting the event with the new CID\r\n        emit ProductsAssociatedToShipment(\r\n            shipmentSerialNo,\r\n            productSerialNos,\r\n            newIpfsCid,\r\n            block.timestamp\r\n        );\r\n    }\r\n\r\n    //function to update shipment CID only\r\n\r\n    function updateShipmentCID(\r\n        string memory serialNo,\r\n        string memory newIpfsCid\r\n    ) public onlyOwnerOrAdmin(serialNo) {\r\n        require(bytes(newIpfsCid).length > 0, \"Invalid IPFS CID\");\r\n\r\n        // Update the shipment's CID\r\n        delete shipmentCIDs[serialNo];\r\n        shipmentCIDs[serialNo] = newIpfsCid;\r\n\r\n        // Emit an event with the new information and the address of the updater\r\n        emit ShipmentUpdated(\r\n            serialNo,\r\n            newIpfsCid,\r\n            0,\r\n            \"\",\r\n            msg.sender,\r\n            block.timestamp\r\n        );\r\n    }\r\n\r\n    function syncShipmentCID(\r\n        string memory serialNo,\r\n        string memory newIpfsCid,\r\n        int temperature,\r\n        string memory location\r\n    ) public {\r\n        require(\r\n            msg.sender == shipmentOwners[serialNo],\r\n            \"Only the shipment's owner can update the CID\"\r\n        );\r\n        require(bytes(newIpfsCid).length > 0, \"Invalid IPFS CID\");\r\n\r\n        // Update the shipment's CID\r\n        delete shipmentCIDs[serialNo];\r\n        shipmentCIDs[serialNo] = newIpfsCid;\r\n\r\n        // Log the temperature and location update\r\n\r\n        ///se sterge\r\n        temperatureLogs[serialNo].push(\r\n            TemperatureLog(block.timestamp, temperature)\r\n        );\r\n\r\n        // Emit an event with the new information and the address of the updater\r\n        emit ShipmentUpdated(\r\n            serialNo,\r\n            newIpfsCid,\r\n            temperature,\r\n            location,\r\n            msg.sender,\r\n            block.timestamp\r\n        );\r\n    }\r\n\r\n    //function to return temperature logs for a shipment\r\n\r\n    function getTemperatureLogs(\r\n        string memory serialNo\r\n    ) public view returns (TemperatureLog[] memory) {\r\n        return temperatureLogs[serialNo];\r\n    }\r\n\r\n    function initiateShipmentTransfer(\r\n        string memory serialNo,\r\n        address newOwner\r\n    ) public {\r\n        require(\r\n            entities[newOwner].isRegistered,\r\n            \"New owner must be a registered entity\"\r\n        );\r\n        require(\r\n            shipmentOwners[serialNo] == msg.sender,\r\n            \"Only the shipment's owner can initiate the transfer\"\r\n        );\r\n\r\n        // Check if the serial number is already pending for transfer\r\n        require(\r\n            !pendingSerialNumbers[serialNo],\r\n            \"This shipment transfer is already pending\"\r\n        );\r\n\r\n        pendingTransfers[newOwner].push(serialNo);\r\n        pendingTransferIndexes[serialNo][newOwner] =\r\n            pendingTransfers[newOwner].length -\r\n            1;\r\n        pendingSerialNumbers[serialNo] = true;\r\n\r\n        emit ShipmentTransferInitiated(\r\n            serialNo,\r\n            msg.sender,\r\n            newOwner,\r\n            block.timestamp\r\n        );\r\n    }\r\n\r\n    function acceptShipmentTransfer(\r\n        string memory serialNo,\r\n        string memory newIpfsCid // address own\r\n    ) public {\r\n        // require(\r\n        //     hasPendingTransfer(msg.sender, serialNo),\r\n        //     \"No pending transfer for this shipment to you\"\r\n        // );\r\n        require(bytes(newIpfsCid).length > 0, \"Invalid IPFS CID\");\r\n\r\n        address previousOwner = shipmentOwners[serialNo];\r\n\r\n        delete shipmentCIDs[serialNo];\r\n        shipmentCIDs[serialNo] = newIpfsCid;\r\n\r\n        delete shipmentOwners[serialNo];\r\n        shipmentOwners[serialNo] = msg.sender;\r\n\r\n        // Update the ownedShipments mapping\r\n        uint indexToDelete = shipmentIndexes[serialNo];\r\n        string[] storage previousOwnerShipments = ownedShipments[previousOwner];\r\n        uint lastIndex = previousOwnerShipments.length - 1;\r\n\r\n        if (indexToDelete != lastIndex) {\r\n            string memory lastShipmentId = previousOwnerShipments[lastIndex];\r\n            previousOwnerShipments[indexToDelete] = lastShipmentId;\r\n            shipmentIndexes[lastShipmentId] = indexToDelete;\r\n        }\r\n        previousOwnerShipments.pop();\r\n        delete shipmentIndexes[serialNo];\r\n\r\n        ownedShipments[msg.sender].push(serialNo);\r\n        shipmentIndexes[serialNo] = ownedShipments[msg.sender].length - 1;\r\n\r\n        removePendingTransfer(msg.sender, serialNo);\r\n        emit ShipmentTransferAccepted(serialNo, msg.sender, block.timestamp);\r\n        emit ShipmentOwnershipTransferred(\r\n            serialNo,\r\n            previousOwner,\r\n            msg.sender,\r\n            block.timestamp\r\n        );\r\n    }\r\n\r\n    // Function to reject a shipment transfer\r\n    function rejectShipmentTransfer(\r\n        string memory serialNo,\r\n        string memory newIpfsCid\r\n    ) public {\r\n        require(bytes(newIpfsCid).length > 0, \"Invalid IPFS CID\");\r\n        // require(hasPendingTransfer(msg.sender, serialNo), \"No pending transfer for this shipment to you\");\r\n\r\n        // Update the IPFS CID\r\n        shipmentCIDs[serialNo] = newIpfsCid;\r\n\r\n        // Remove the shipment from the pending transfers\r\n        removePendingTransfer(msg.sender, serialNo);\r\n\r\n        // Emit event\r\n        emit ShipmentTransferRejected(serialNo, msg.sender, block.timestamp);\r\n    }\r\n\r\n    //function to return all shipments owned by an address\r\n    function getOwnedShipments(\r\n        address owner\r\n    ) public view returns (string[] memory) {\r\n        return ownedShipments[owner];\r\n    }\r\n\r\n    // Function to get all shipment serial numbers\r\n    function getAllShipmentSerialNumbers()\r\n        public\r\n        view\r\n        returns (string[] memory)\r\n    {\r\n        return shipmentSerialNumbers;\r\n    }\r\n\r\n    // Helper function to check if an address has a pending transfer for a specific shipment\r\n    // function hasPendingTransfer(\r\n    //     address recipient,\r\n    //     string memory serialNo\r\n    // ) private view returns (bool) {\r\n    //     string[] memory pending = pendingTransfers[recipient];\r\n    //     for (uint i = 0; i < pending.length; i++) {\r\n    //         if (keccak256(bytes(pending[i])) == keccak256(bytes(serialNo))) {\r\n    //             return true;\r\n    //         }\r\n    //     }\r\n    //     return false;\r\n    // }\r\n\r\n    // Helper function to remove a shipment from the pending transfers list\r\n    function removePendingTransfer(\r\n        address recipient,\r\n        string memory serialNo\r\n    ) private {\r\n        uint indexToDelete = pendingTransferIndexes[serialNo][recipient];\r\n        string[] storage pending = pendingTransfers[recipient];\r\n        uint lastIndex = pending.length - 1;\r\n\r\n        if (indexToDelete != lastIndex) {\r\n            string memory lastSerialNo = pending[lastIndex];\r\n            pending[indexToDelete] = lastSerialNo;\r\n            pendingTransferIndexes[lastSerialNo][recipient] = indexToDelete;\r\n        }\r\n        pending.pop();\r\n        delete pendingTransferIndexes[serialNo][recipient];\r\n        delete pendingSerialNumbers[serialNo];\r\n    }\r\n\r\n    // Function to get all pending transfers for a user\r\n    function getPendingTransfers(\r\n        address user\r\n    ) public view returns (string[] memory) {\r\n        return pendingTransfers[user];\r\n    }\r\n\r\n    // Temperature logging functions\r\n    function logTemperature(\r\n        string memory serialNo,\r\n        int temperature\r\n    ) public onlyOwnerOrAdmin(serialNo) {\r\n        temperatureLogs[serialNo].push(\r\n            TemperatureLog(block.timestamp, temperature)\r\n        );\r\n        emit TemperatureLogged(serialNo, temperature, block.timestamp);\r\n    }\r\n\r\n    //function to log array of temperatures for a shipment\r\n    // function logTemperatureArray(\r\n    //     string memory serialNo,\r\n    //     int[] memory temperatures\r\n    // ) public onlyOwnerOrAdmin(serialNo) {\r\n    //     for (uint i = 0; i < temperatures.length; i++) {\r\n    //         temperatureLogs[serialNo].push(\r\n    //             TemperatureLog(block.timestamp, temperatures[i])\r\n    //         );\r\n    //     }\r\n    // }\r\n\r\n    //function to set alert for a shipment\r\n    function setAlert(\r\n        string memory serialNo,\r\n        uint code\r\n    ) public onlyOwnerOrAdmin(serialNo) {\r\n        alerts[serialNo].push(AlertLog(block.timestamp, code));\r\n    }\r\n\r\n    //function to ger alerts for a shipment\r\n    function getAlerts(\r\n        string memory serialNo\r\n    ) public view returns (AlertLog[] memory) {\r\n        return alerts[serialNo];\r\n    }\r\n    // Accessor methods\r\n    function getShipmentOwner(\r\n        string memory serialNo\r\n    ) public view returns (address) {\r\n        require(\r\n            bytes(shipmentCIDs[serialNo]).length != 0,\r\n            \"Shipment does not exist\"\r\n        );\r\n        return shipmentOwners[serialNo];\r\n    }\r\n\r\n    function isAdmin(address user) public view returns (bool) {\r\n        return user == admin;\r\n    }\r\n}\r\n",
  "sourcePath": "C:\\Users\\paulc\\OneDrive\\Desktop\\New_Test_IPFSproj\\project\\contracts\\Provenance.sol",
  "compiler": {
    "name": "solc",
    "version": "0.8.19+commit.7dd6d404.Emscripten.clang"
  },
  "schemaVersion": "3.4.16",
  "updatedAt": "2024-07-03T00:14:44.443Z",
  "devdoc": {
    "kind": "dev",
    "methods": {},
    "version": 1
  },
  "userdoc": {
    "kind": "user",
    "methods": {},
    "version": 1
  }
}